:020000040800F2
:10000000100700201D75000861710008FD710008CF
:10001000FF71000801720008037200087572000881
:100020000000000000000000000000000572000851
:100030000772000800000000097200080B72000837
:1000400075720008757200087572000875720008F4
:1000500075720008757200087572000875720008E4
:1000600075720008757200087572000875720008D4
:1000700075720008757200087572000875720008C4
:1000800075720008757200087572000875720008B4
:1000900075720008757200087572000875720008A4
:1000A0007572000875720008757200087572000894
:1000B0007572000875720008757200087572000884
:1000C00075720008157200087572000875720008D4
:1000D0007572000875720008757200087572000864
:1000E0007572000875720008757200087572000854
:1000F0007572000875720008257200087572000894
:100100007572000875720008757200087572000833
:100110007572000875720008757200087572000823
:100120007572000875720008757200087572000813
:100130007572000875720008757200087572000803
:1001400075720008757200087572000875720008F3
:1001500075720008757200087572000875720008E3
:1001600010B5054C237833B9044B13B10448AFF3F1
:1001700000800123237010BD6807002000000000EC
:1001800074A1000808B5034B1BB103490348AFF342
:10019000008008BD000000006C07002074A100086A
:1001A00010B5040010461A4618BF00290AD00028CE
:1001B00018BF002A06D021610146204602F015FD35
:1001C000014B636110BD00BFFEAF1C5E10B50400A3
:1001D00007D002F04EFD20461821BDE8104009F07E
:1001E0006FBF10BD002810B518BF002901D1012034
:1001F00010BD002444618161C2610362002010BD12
:1002000002469069D36900684168006802F028BC22
:10021000C16902F0ACBC70B50546E8690E4614220F
:1002200002F0F3FC040049D1316800200861AA699A
:1002300010680368E8691A6803F07AFF040038D18F
:10024000A869016830680A6800F10801E869126865
:1002500003F06EFF040028D1A86931684268D369B1
:10026000032B30D00068091D0268E869126803F0AA
:100270005FFF040013D1A86931684268D369022B7B
:100280001ED100680C310268E869126803F050FF63
:10029000040013D03068011DE86903F054FF306892
:1002A00000F10801E86903F04EFF3168E86903F0E6
:1002B0004AFFE8691422314602F0C6FC204670BDB0
:1002C0000020C860FAE700224A60CA60F6E770B50D
:1002D0000C460025002C06461ABF20680028012580
:1002E00023D0B1694A68D369022B04D100F10C0113
:1002F000F06903F028FFB0694168C869032804D099
:100300002168F069091D03F01EFF206800F1080153
:10031000F06903F018FF2168F06903F014FFF06939
:100320001422214602F090FC2560284670BD000092
:10033000F8B50F4600251646002F044618BF002EBC
:100340000BD0396800291CBFB868002805D0326876
:10035000002A1CBFB068002801D1012519E03B69C3
:100360002046336103F02AFF796800291FBF7268B5
:10037000002A204603F022FFB268B968204603F045
:100380001DFFF96800291FBFF268002A204603F00C
:1003900015FF2846F2BD70B50E46B16915460446F4
:1003A0000A680120D3693BB1022B01D007D370BD8D
:1003B0004968CB69032B14D0126869680CE0126895
:1003C0002968204602F01EFBB1694A68D369022BF6
:1003D00007D10868E96802682046BDE8704002F06D
:1003E00011BB70BD70B506460D462869002440F06B
:1003F00001002861B1690868C2691AB1022A08D0EF
:1004000018D32DE02868002103F0C9FE6868012197
:100410000BE049682868CA69032A08BF012104D093
:10042000002103F0BCFE0121686803F0B8FE002142
:10043000A86812E02868002103F0B1FE6868012175
:1004400003F0ADFEA868012103F0A9FEB069416880
:10045000C869022805D10021E86803F0A0FE00E089
:100460000124204670BD2DE9FC4B16460025002EC8
:1004700080468B461C461CBF0B9F002F05D0396859
:1004800000291CBFB868002803D101252846BDE813
:10049000F68B0A9838614A683168404602F07FFB63
:1004A0003A685060786838B156F82B104268404678
:1004B00002F075FB79684860B868002C42684046D5
:1004C0000CBF0121216802F06AFBB9684860F86836
:1004D00038B156F83B104268404602F060FBF968BC
:1004E00048604FF00209361F15E0404602F057FB06
:1004F000B96841F82900F86858B150F8292009EB8B
:100500004B0056F82010404602F049FBF96841F8CC
:10051000290009F10109CB45B8D3386856F82910EC
:1005200050F82920404602F03AFB396841F829008A
:10053000786858B150F829200BEB090056F82010C4
:10054000404602F02CFB796841F82900B868002C7D
:1005500050F829200EBF0021201F50F82910C4E7B1
:1005600070B50446A0690D4600264168C869032895
:1005700018D8DFE800F00707020C226AE868214675
:1005800002F087FA226A6868214602F082FA226A3B
:100590002868214602F07DFA226AA868214602F006
:1005A00078FA00E00126286940F00400286130460E
:1005B00070BD000038B50446A0690D464168C869A1
:1005C00003281FD8DFE800F009090210236AE26956
:1005D000E868214602F065FAA8B9236AE26968680A
:1005E000214602F05EFA70B9236AE2692868214662
:1005F00002F057FA38B9236AE269A868214602F086
:1006000050FA00E00120296921F00401296132BD7E
:10061000F8B5044600260D46002C18BF002D5ED00C
:10062000287C002100F0010002F0C1FA012856D018
:10063000A868002103F040FE012850D0A06901689D
:100640002868096803F0F7FD002848D5A0694168CB
:10065000CA69032A06D000680168686803F0EBFDE8
:1006600000283CD5A1690968086900281CBF4869B1
:10067000002835D0C86918B1022831D032D32EE015
:100680006069236A22460168286802F04FFAA0696F
:10069000616900680B6802680169184601F03CFE58
:1006A0006069216A2346026800912968104602F0B9
:1006B0001AFAA0696269016810680A684969034604
:1006C00001F02AFE6069236A22464168686802F0E8
:1006D0002DFA60694168006803F0ADFD00B10426A1
:1006E0003046F2BD6069236A22460168286802F03C
:1006F0001DFA6069236A22464168686802F016FAAA
:100700006069226A234601680092A0690A46076868
:10071000386902F0E8F9A2696169176808684968F0
:100720003A68034601F0F8FD6069216A2346406893
:1007300000912968024602F0D6F96069216A2346D1
:10074000406800912968024602F0CDF96069216A8B
:10075000234640680091A76902463F68796902F024
:10076000C2F9A16960690A68A9684068126803460D
:1007700001F0D2FDADE70000F0B50F4685B00021D5
:10078000064603910491B06903A901250368F06945
:100790001C68226803F0CCFC040040F0C680B069FD
:1007A0000168F0690A6804A9126803F0C1FC04003A
:1007B00040F0B780387C002100F0040002F0F7F927
:1007C00020B9394630460025FFF7CAFEDFF8782108
:1007D000D2E900345649CDE900340878554B002859
:1007E0000EBF0021042004211A585DF8010052496F
:1007F000821811601068012191605A680099504078
:100800001A6841404D4880EA010C01994C484A4021
:100810004240B06994444B4A036892EA0C0F049A30
:10082000186814BF6FF002016FF0010101F0B8FE0B
:10083000B0693246C469306A0290F1690398019147
:10084000049900906368B8682468A0470446B069BA
:100850004168C86903284AD8DFE800F0021F294030
:10086000336A04990398324602F060F9306A3A68B4
:10087000049900903346104602F035F9306A049A24
:10088000334600900398114602F02DF9316A7868DA
:10089000334600910246049926E0316A38683346AF
:1008A00000910399024602F01EF9786817E0316A58
:1008B0003868334600910399024602F014F9316A10
:1008C0007868334600910399024602F00CF9306AC9
:1008D00033460090FA687968386805E03868316A0C
:1008E000334602460091039902F0FDF800E001242E
:1008F000316AB868334600910399024602F0F3F872
:10090000002D08BF002C04D139463046FFF752FEB7
:100910000446386904A940F002003861F06903F028
:1009200012FCF06903A903F00EFC204605B0F0BDEF
:100930008407002038A500082C7E82AD04850012B3
:10094000FC68017AA8E29B8ED01E00082DE9F047D2
:1009500088B00646B0691D4689469246016A00681D
:1009600009EB0A0212F8017C0368F069D1F80880EB
:100970001A6806A9FF0903F0DBFB040040F041817F
:10098000B0690168F0690A6807A9126803F0D0FB32
:10099000040040F03281B0690168F0690A6803A977
:1009A000126803F0C5FB040040F02381B0690168C0
:1009B000F0690A6805A9126803F0BAFB040040F068
:1009C0001481B0690168F0690A6804A9126803F02B
:1009D000AFFB04001AD1039A5146484603F0BFFC0E
:1009E00003980399006851F8202022F0004241F852
:1009F0002020B06901680398096803F01CFC0028F6
:100A000005D4F06904A9042403F09DFBE9E06868BB
:100A1000002103F0C4FB6A680399012003F0CEFBB8
:100A2000326A0398314602F034F8336A0599039824
:100A3000324602F07BF8B0690168C0680A68011D9F
:100A40000498126803F08AFBB069079B0168059857
:100A50000A68049901F0F1FC306A069A3346009066
:100A6000B06901680598496902F03DF8B069069BD4
:100A700001680A680499184601F04EFC336A03992C
:100A80000698324602F052F8306A039A06990090AE
:100A90003346104602F027F8306A059A0399009011
:100AA0000798334602F01FF80399336A3246084626
:100AB00002F03CF8306A039A0699009033461046DB
:100AC00002F011F8306A039A0799009033461046F5
:100AD00002F009F8B069049A6FF00401036818681D
:100AE00001F05EFD049A0321104601F0EAFBB069B3
:100AF000C469306A0290F169039801912A680499E7
:100B00000092636824683246A0470446F06904A94D
:100B100003F019FB002C64D1316A28683346009138
:100B20000599024601F0DFFF336A039928683246CF
:100B300001F0FCFF306A039A334600900698114694
:100B400001F0D1FF0799039803F075FB98B1B069E4
:100B5000059A07990368186801F0EEFC0599039857
:100B600003F069FBB8B9316A286833460091024640
:100B7000414601F0B8FF336AF2692868314601F056
:100B800090FF04002DD1012F07D12868002103F028
:100B900093FB012801D1042423E0B069296802688D
:100BA0000879126800F00100784001F02BFF2869F5
:100BB000012140F002002861A86803F0F0FAB06952
:100BC0004168C86902280CD1306A33460090EA684F
:100BD0006968286801F087FF326AE868314601F0E9
:100BE00058FFF06905A903F0AEFAF06903A903F014
:100BF000AAFAF06907A903F0A6FAF06906A903F0BA
:100C0000A2FA204608B0BDE8F0872DE9F0431F4660
:100C100005468846914687B008EB090010F8016C3C
:100C2000A86905A9F6090368E8691C68226803F049
:100C30007FFA040040F01381A8690168E8690A6836
:100C400006A9126803F074FA040040F00481A86950
:100C50000168E8690A6803A9126803F069FA0400E8
:100C600040F0F580A8690168E8690A6804A912687B
:100C700003F05EFA040040F0E6807A68A9F1010111
:100C8000404603F06CFBA86901687868096803F0C6
:100C9000D2FA002840F1BF800398002103F07FFAC8
:100CA000039A7968012003F089FA2A6A0398294691
:100CB00001F0EFFE2B6A049903982A4601F036FFF3
:100CC000A8690168C0680A68011D3868126803F0E5
:100CD00045FAA869069B016804980A68396801F01A
:100CE000ACFB286A059A2B460090A8690168049815
:100CF000496901F0F8FEA869059B01680A6839682E
:100D0000184601F09AFB2B6A039906982A4601F0CF
:100D10000DFF03992B6A2A46084601F007FF286A4F
:100D2000039A069900902B46104601F0DCFE2B6AD0
:100D3000049905982A4601F0F9FE286A049A2B4680
:100D400000900598114601F0CEFE286A039A049996
:100D500000902B46104601F0C6FEA869049A6FF079
:100D600002010368186801F01BFC049A0221104676
:100D700001F0A7FAA869C469286A0290E969039892
:100D800001913A6804990092636824682A46A04752
:100D9000040054D1286A039A0599009006982B46BE
:100DA00001F0A1FE2B6A049906982A4601F0BEFEC6
:100DB000286A039A049900902B46104601F093FE8E
:100DC000296A38682B4600910399024601F08BFE90
:100DD0002B6A039938682A4601F0A8FE286A039A0C
:100DE0002B4600900598114601F07DFE0699039868
:100DF00003F021FA78B92B6AEA693868294601F0CC
:100E000050FE04001BD1012E07D13868002103F0E9
:100E100053FA012801D1042411E0A8693968026855
:100E20000879126800F00100704001F0EBFDB8682D
:100E3000012103F0B4F9386940F002003861E86933
:100E400004A903F080F9E86903A903F07CF9E869D3
:100E500006A903F078F9E86905A903F074F92046BA
:100E600007B0BDE8F08370B50646B0690C4615467C
:100E700001680868026850F8220001F0A4FEB16918
:100E800062680B684FF0FF319E69761E4E4032401B
:100E90006260C0F12002D14022680126401E54F851
:100EA000223086400B4044F82230226854F8223029
:100EB000334344F822302868026850F82230194041
:100EC00040F8221070BD2DE9F44F05460E461F462E
:100ED00084B06869D0F80080D0F80490D0F808A0F9
:100EE000C0680E9C2A4601907968D7F800B003913B
:100EF000B868414602902B6AB06801F017FE286A74
:100F00002B464A460090B068414601F0ECFD286A45
:100F100004992B46009009684246404601F0E3FDE3
:100F2000286A04992B46009049684A46484601F0D1
:100F3000DAFDA8694346016840460A68316801F055
:100F40007CFAA8694B46016848460A68716801F056
:100F500074FAECB10021404603F0AEF920603A6823
:100F6000494603F063F983467A682068494603F0EE
:100F70005DF90390BA682068494603F057F902907A
:100F80000021484603F098F9216841EA40012160B8
:100F9000286A029A2B460090B068414601F0A3FDF2
:100FA0002B6A2A465146404601F0C0FD286A019A44
:100FB0002B4600905146404601F095FD286A2B468D
:100FC000524600903068514601F08DFDA8694346B5
:100FD000016850460A68514601F09EF92B6A2A467C
:100FE0005946484601F0A2FDA8695B46016858468B
:100FF0000A68414601F021FAA8695B460168584633
:101000000A68019901F019FAA86953460168504627
:101010000A68594601F011FA286A2B465246009098
:101020005146484601F05FFD286A019A2B46009020
:101030007168104601F057FDA869039B016850468E
:101040000A68019905B0BDE8F04F01F0F6B92DE945
:10105000F84F044660691E46D0F80090D0F804A00E
:10106000D0F80880D0F80CB0236A0D46A86817465F
:101070002246494601F05AFD206A23465246009016
:101080003868494601F02FFD206A23464A46009001
:10109000A868494601F027FD206A23464A46009089
:1010A0007868494601F01FFD236AB8682246414628
:1010B00001F03CFD206A23465A46009028684146CC
:1010C00001F011FD206A234642460090B86841466F
:1010D00001F009FD206A23464246009068684146B7
:1010E00001F001FDA0695346016850460A6859465F
:1010F00001F0A3F9A0694B46016848460A684146D9
:1011000001F09BF9206A2346514600903268B86886
:1011100001F0E9FC206A23460090B2683168A868B3
:1011200001F0E1FC236A31682246504601F0FEFCE2
:10113000206A2346009072683168504601F0D3FC63
:10114000206A2346524600903168584601F0CBFC95
:10115000236A31682246484601F0E8FCA1693068FC
:101160000A6871680346126801F067F9206A7168BD
:10117000234600900A46404601F0B5FCA06942466D
:1011800001685046096801F0DEFBA16930680A6811
:1011900041460346126801F050F9A06953460168C0
:1011A00050460A68316801F048F9206A23464A46E9
:1011B00000905146484601F096FCA06971680268AB
:1011C00048460B46126801B0BDE8F04F01F035B952
:1011D0002DE9FE4F04460D46606916469846816823
:1011E0000768D0F8049001913168D0F80CA03A4615
:1011F000404603F01BF8716883463A46404603F0C8
:1012000015F80290B1683A46404603F00FF80646DA
:10121000236AA8682246394601F088FCA0694B463B
:10122000016828680A68394601F076F8A0693B46EB
:10123000016828680A68394601F0FFF8206A2346E9
:101240003A4600904946384601F04DFCA0694A46AE
:1012500001683846096801F024FBA0693B46016833
:1012600038460A68494601F057F8236A68682246FA
:10127000494601F05BFC206A019A234600902868E9
:10128000494601F030FC236A22465146384601F0B7
:101290004DFCA0695346016850460A68019901F067
:1012A000CCF8A0695B46016850460A68019901F0D4
:1012B000C4F8206A234632460090A968686801F0A5
:1012C00012FC236A22464946484601F02FFCA069D9
:1012D0005346016801980A68594601F0AEF8206A41
:1012E00023463A4600905146384601F0FCFBA0697F
:1012F000029B016838460A68494603B0BDE8F04FD2
:1013000001F09BB82DE9FE4F044660690768D0F8EC
:101310000480D0F80890C0680D46164601903168E8
:1013200002983A4602F082FF8246716802983A4675
:1013300002F07CFF8346B16802983A4602F076FFDD
:101340000646A0693B46016868680A68A96800F01B
:10135000E3FF236A28682246414601F0E7FB236A3F
:1013600068682246494601F0E1FBA06953460168DE
:1013700028680A68494600F0CFFF236A0199A868E7
:10138000224601F0D3FB236A22465146504601F023
:10139000CDFBA0695346016850460A68414601F0FA
:1013A0004CF8A0695A4601684046096801F0CBFA3A
:1013B000A0694346016840460A68594600F0ACFF00
:1013C000236A22465946484601F0B0FB236A22466A
:1013D0003946384601F0AAFBA0693B460168384609
:1013E0000A68494601F029F8A06933460168384681
:1013F0000A68019901F021F80199236A22460846FA
:1014000001F094FB206A019A23460090A0691146DE
:101410000568286901F067FBA0693B460168404602
:101420000A68019900F078FFA069434601680A68DC
:101430005946504601F001F8A0694246016840460D
:10144000096801F080FA236A22464946384601F0CD
:101450006DFBA069019A01684046096801F073FAC2
:10146000A0695346016848460A68019900F0E5FF03
:10147000A0694346016840460A68514600F0DDFF16
:10148000A0694A4601685846096801F05CFAA069FB
:101490004A4601684846096801F055FAA0694A467B
:1014A00001684846096801F04EFA206A23463A4628
:1014B00000904146384601F016FBA0695B46016882
:1014C00038460A68494603B0BDE8F04F00F0B5BFA2
:1014D0002DE9FC47044665690A98D5F80080D5F8DF
:1014E0000490D5F808A008B1002505601646226AC8
:1014F0000F461D460092316838682346424601F087
:10150000F2FAA0694B46016838680A68796800F009
:1015100003FFA0692B68016830680A68716800F0F1
:10152000FBFE206A234600906A687168786801F0C3
:10153000DAFA206A2346524600906968404601F074
:10154000D2FA206A234652460090A06951460668A6
:10155000706901F0C8FA206A23464A46009029685B
:10156000484601F0C0FAA0694B46016848460A683F
:10157000414600F062FFA0694B46016848460A6890
:10158000696800F05AFF206A234642460090A0692D
:1015900041460668306901F0A6FAA16968680A68E0
:1015A00041460346126800F048FF236A2968B8687C
:1015B000224601F0BBFAA0694346016828680A6820
:1015C000514600F03AFFA0695346016828680A684E
:1015D000514600F0A1FE206A23464A460090494643
:1015E000404601F080FA206A2346494600902A6866
:1015F000B86801F078FA206A23464A460090696884
:10160000504601F070FA206A2346494600906A6805
:10161000B86801F068FA206A234651460090AA682B
:10162000404601F060FABDE8F3872DE9FC47044627
:101630006069D0F800A0D0F80480D0F80890206A43
:101640000D4617460090B968A8681E4623465246C4
:1016500001F049FA206A23460090B2683968286888
:1016600001F041FAA0694346016828680A68696880
:1016700000F052FEA0693368016838680A6879682A
:1016800000F04AFE206A2346009072687968686814
:1016900001F029FA206A23464A4600907168B06832
:1016A00001F021FA206A23464A460090A069494683
:1016B0000568686901F017FA206A234642460090DF
:1016C0003168404601F00FFAA06943460168404680
:1016D0000A68B16800F0B1FEA0694346016840465F
:1016E0000A68716800F0A9FE206AB168234600907C
:1016F000A0690A460568286901F0F5F9A1697068D2
:101700000A68B1680346126800F097FE236A3168E0
:101710002246504601F00AFAA069B36801683068B1
:101720000A68494600F089FEA0694B4601683068A6
:101730000A68494600F0F0FD206A234642460090C0
:10174000B068414601F0CFF9206A23464146009037
:101750003268504601F0C7F9206A2346424600909D
:101760007168484601F0BFF9206A2346414600905F
:101770007268504601F0B7F9216AB06823460091BB
:101780000246494601F0AFF9BDE8F3872DE9F84F6D
:10179000044660690D461746066839689B46D0F8CE
:1017A00004A03246584602F041FD79688046324630
:1017B000584602F03BFDB96881463246584602F071
:1017C00035FD0746A0693346016828680A686968DC
:1017D00000F0A2FD236A28682246514601F0A6F9CE
:1017E000206A234642460090A0695146D0F800E0A6
:1017F000DEF8100001F077F9236A224631463046C0
:1018000001F094F9A0693346016830460A685146F0
:1018100000F013FE236A68682246494601F086F903
:10182000A0695346016840460A68494600F074FDC5
:10183000A0694346016840460A68494600F0FDFD3C
:10184000A0693346016830460A68494600F0F5FD54
:10185000236AA8682246394601F068F9A0693A4629
:1018600001683846096801F06EF8206A23464A4646
:1018700000904146504601F036F9A0693B460168A8
:1018800050460A68394600F0D8FD206A2346424691
:1018900000903946304601F026F9206A23463A4640
:1018A00000903946504601F01EF9BDE8F18F2DE950
:1018B000F8430D4604466169089817461E46D1F85C
:1018C0000080D1F8049008B100210160A069296866
:1018D000434600680268686800F0AFFDA0694B46A7
:1018E000016878680A68396800F016FD206A2346A6
:1018F000424600904946404601F0F5F8A0694B4643
:10190000016868680A68296800F006FDA069336804
:10191000016878680A68396800F08FFD206A2346FC
:101920004A4600903168484601F0DDF8A069336806
:10193000016848460A68414600F07FFDA0694B46B1
:10194000016848460A68414600F0E6FCA0697268F2
:101950000168F868096800F0F6FF206A716823469C
:101960000090A8680A4601F0BEF8A069F268016814
:10197000E868096800F0E7FFA06943460168F0687D
:101980000A68716800F0C8FCA169F0680A687168AB
:101990000346126800F051FD206A23464946009034
:1019A000B268306801F09FF8206A316823460090E1
:1019B0000A46404601F097F8206A23460090726874
:1019C000F168484601F08FF8206AF16823460090DC
:1019D0000A46404601F087F8BDE8F1832DE9F84357
:1019E0000446606917460D46D0F80490D0F8008090
:1019F000A06929681E46006843460268686800F0CE
:101A00001CFDA0694B46016878680A68396800F0D7
:101A100083FC206A2346424600904946404601F036
:101A200062F8A0694B46016868680A68296800F096
:101A300073FCA0693368016878680A68396800F047
:101A4000FCFC206A23464A4600903168484601F073
:101A50004AF8A0693368016848460A68414600F0C0
:101A6000ECFCA0694B46016848460A68414600F014
:101A700053FCA06972680168F868096800F063FFA8
:101A8000206A716823460090A8680A4601F02BF886
:101A9000A069B2680168B868096800F054FF206A5C
:101AA00023460090F268B168E86801F01CF8A0696C
:101AB00043460168F0680A68716800F02DFCA1696E
:101AC000F0680A6871680346126800F0B6FC206A84
:101AD000234649460090B268306801F004F8206A55
:101AE0003168234600900A46404600F0FCFF206A19
:101AF000234600907268F168484600F0F4FF206ABF
:101B0000F168234600900A46404600F0ECFFBDE82D
:101B1000F1832DE9FE4F0446984660690D4616464E
:101B2000436807684046019331683A4602F07EFBFD
:101B3000716881463A46404602F078FBB1688246B9
:101B40003A46404602F072FBF16883463A46404608
:101B500002F06CFB0646236A28682246394600F0EC
:101B6000E5FF236A68682246314600F0DFFF236AFA
:101B7000A8682246594600F0D9FFA0695A46016874
:101B80005846096800F0DFFEA0694B4601682868E6
:101B90000A68696800F0C0FB236A22464946484645
:101BA00000F0C4FFA0694B46016848460A68394600
:101BB00000F043FCA069524639460368186800F0FB
:101BC000BBFCA0693B46016848460A68314600F004
:101BD00034FCA069019B016850460A68314600F058
:101BE0009BFBA0693346016850460A68314600F005
:101BF00024FCA0695346016801980A68594600F020
:101C00001CFC206A0199234600905A46504600F079
:101C10006AFF206A23464A4600905146384600F043
:101C200062FF206A2346524600900198314600F038
:101C30005AFF206A2346324600903146384600F06B
:101C400052FFBDE8F78F2DE9F84304466069164658
:101C50000D46D0F80490D0F80080A0691F46B968FE
:101C6000006843460268386800F056FBA0694B469E
:101C7000016838680A68B96800F0DFFBA0693B6852
:101C8000016830680A68B16800F046FBA069BB686B
:101C9000016830680A68B16800F0CFFB216AB86853
:101CA000234600910246414600F01DFF236A22466A
:101CB0004146404600F03AFF216A386823460091C9
:101CC0000246494600F00FFF236A2246494648462D
:101CD00000F02CFFA06933680168B8680A683968A9
:101CE00000F01AFBA169B8680A68396803461268EF
:101CF00000F0A3FB3068236A2246014600F016FF7D
:101D0000B868236A2246014600F010FF206A234685
:101D10000090B268B968286800F0E5FE206A2346A2
:101D2000494600903A68404600F0DDFEA0694B4607
:101D3000016840460A68494600F07FFB206A234656
:101D40000090A069BA6801684846096900F0CBFEB6
:101D5000A0694346016840460A68B96800F0DCFAA9
:101D6000206A234649460090BA68404600F0BBFE10
:101D7000BDE8F183FEB5064600200C4617460190EB
:101D800022691D4600212A61207C00F0010000F03C
:101D90000EFF012807D1387C002100F0010000F07F
:101DA00006FF012836D0207C002100F0010000F061
:101DB000FEFE012802D12A46394609E0387C00217E
:101DC00000F0010000F0F3FE012804D12A4621466C
:101DD000FEF7AEFAF7BD3A4601A80090B7692B4668
:101DE0002146D7F804C03046DCF80470B8470198A3
:101DF000C10713D5C0F3400060B13046B669012376
:101E00002A4677682146D7F800C0E0472069400895
:101E1000400002E0286940F001002861F7BDF8B5F4
:101E200006460F4638691D4614462861387C002155
:101E300000F0010000F0BBFE012807D1207C00214A
:101E400000F0010000F0B3FE01283BD0387C0021F7
:101E500000F0010000F0ABFE012802D12A46214625
:101E600009E0207C002100F0010000F0A0FE012824
:101E700005D12A463946BDE8F840FEF759BA394639
:101E8000B7692B462246D7F804C03046DCF8087004
:101E9000B847A868002102F00FFA012816D1286877
:101EA000002102F009FA01280CD13046B66901235D
:101EB0002A4677682146D7F800C0E04720694008E5
:101EC000400002E0286940F001002861F1BD0000F7
:101ED00004B00101001701452DE9F84F94B0002529
:101EE0000C460A950995089506950795059504955C
:101EF0006CB3110002921FBF1E9F002FDDF880B04F
:101F0000BBF1000F23D0050021D06869A2498842A7
:101F10001DD12869C169606A014208BF9F4C17D072
:101F200094F82800810758BF9D4C11D50393216870
:101F3000086802F0D7F908304FEAD00903984845FD
:101F400002BFDDF884A04FEA4908C24501D0954C94
:101F50001EE12B692A4621460BA8FEF743F94246AB
:101F600005A9284600F051FE8F4C0028F0D11198A9
:101F70001F9E016A2846CA6804A94244B21800F0AC
:101F800044FE00284ED11198006AC2680169049885
:101F900008F094F8119B04984A46D3F820C059469B
:101FA000DCF80C30184408F089F8119B0498029969
:101FB000D3F820C04A46DCF80C304B44184408F0F3
:101FC0007DF8119B394604981F6A3246FB684344EA
:101FD000184408F073F811980021059B006A0191DC
:101FE000CDF80080C2680068049942440068B218C5
:101FF00000F0E8F807461198016AC86804A940444F
:102000003218284600F020FEB7F5003F18BF674C95
:1020100008D11198016828468A680AA9126802F056
:1020200087F8002840F0AF8009F10307BF087A0065
:1020300009A9284602F07CF8002816D1099A0598CB
:10204000414602F08CF911980A9A2B4601680998CA
:10205000896800F0C4FA09A9284602F074F83A46E3
:1020600008A9284602F064F8002840F088800BEBAD
:102070000800801E4178077811984FF6FF7647EAEE
:1020800001270168886802F02DF9C0EBC900C6403D
:10209000F64337420DD1089A49460BEB090002F08E
:1020A0005EF9119801680898896802F0C4F8002860
:1020B00001D43F4C5FE006A90BA8FEF7ACF800285E
:1020C00059D107A90BA8FEF7A6F800284FD10BA8F5
:1020D000FEF796F8002846D1119F079B039A3E6AA7
:1020E00002990BA87768B84718B1042838D1314C49
:1020F00036E0079A0BA90120FEF74DF9119F0698CB
:10210000089B079A0A9900907F690BA83E68B04720
:1021100030BB06990BA8FEF72FFB08BB0698059964
:102120004A46406802F067F9069A05981368224A01
:10213000401E10F809105C68204B41EAC41100F8F9
:102140000910229801921E4903901868059A02917D
:1021500000904B464FEA5A01584601F071FF044681
:102160000BA8FEF755F807A90BA8FEF7B0F806A9CB
:102170000BA8FEF7ACF808A9284601F0E4FF0AA96D
:10218000284601F0E0FF424605A9284600F05CFD24
:10219000204615B0BDE8F08FFEAF1C5E0E000600B5
:1021A0000F000600030006000C00060001000600F8
:1021B000090006000800060026C7060050A800080F
:1021C000936E060038B50C46002811461A46094B96
:1021D0001CBF0568002D0AD04AB104B939B904986A
:1021E00028B1059B009303462046A847034618469E
:1021F00032BD00BF030002002DE9F04104460E4647
:10220000216817461D464A6890478046B8F5003F4A
:1022100019D1226806992046936898478046B8F5F8
:10222000003F10D1236831463A46DE682046B04769
:102230008046B8F5003F06D123682946079A1D69F4
:102240002046A8478046216820460A6890474046B5
:10225000BDE8F08140B1016829B1044A914202D140
:102260000121034B1970406804F0ACBC00003748F2
:102270008407002010B5002204E050F8224043F803
:102280002240521C8A42F8D310BDF0B503460E46D8
:1022900001274FF0030C02241F22002507FB03F047
:1022A00000210CEA0000001BA94124EA0101CF191A
:1022B00064004FEA4C0080F0010C521EEED13760F2
:1022C000F0BD00232029F0B528BF012322D21468D5
:1022D0000568AC4238BF03231CD301240AE000EB9D
:1022E00084077F68C1F1200E07FA0EF73E4342F8DB
:1022F00024602C4650F824600768651CCE40BC4220
:10230000EDD342F8246002E042F825306D1C1068DD
:10231000A842F9D21846F0BD2DE9FF4E82460020B2
:1023200017469C46CDE902003A68DCF800300E46BC
:102330000021934221BFDAF800B0934535689542F9
:1023400001D2032076E0AB4503D3CDF804A000957D
:1023500003E0CDF800B00196AB465B454FF0010EAF
:1023600038BF9B46002515E05AF82E2056F82E401F
:10237000801841EB0509021957F82E0049EB0503B7
:102380000021101A63EB01014CF82E000846C91712
:102390000EF1010E3A687245E6D2009C74451CD3DA
:1023A0005AF82E2056F82E400023002514195D41BE
:1023B000001969414CF82E000846C9170EF1010EAC
:1023C000EBE7019C002354F82E20801859414CF86B
:1023D0002E000846C9170EF1010EF345F1D26646EC
:1023E00086464FF0010CDDE90201002510E057F8A8
:1023F0002C2056F82C40002302EA0E02A2186B4152
:102400008018594146F82C00084600210CF1010CB7
:102410003A686245EBD2346864450AD356F82C20FA
:102420008018694146F82C00084600210CF1010C87
:10243000F1E7002004B0BDE8F08E2DE9F44F8E46A0
:1024400084B0049A0021CDE902111C681568834606
:10245000AC4238BF03206CD3DEF80050DBF80090AC
:10246000A94506D3CDF80090CDF804B0A9468C4616
:1024700004E0CDF804E000954FF0FF3C009D984645
:102480004FF0010AAC4238BF00940022002300251F
:102490000FE05BF82A005EF82A40161843EB0107AC
:1024A000321B67EB050348F82A201A46DB170AF1AE
:1024B000010AD145EDD20098504511D3019E56F83E
:1024C0002A0020EA0C0412196B4100EA0C00121ACF
:1024D0008B4148F82A201A46DB170AF1010AEAE77D
:1024E00016460127DDF810C0DDE902010EE05CF8B8
:1024F000272058F8274000233240A2186B4180184B
:10250000594148F82700084600217F1CDCF80020CC
:10251000BA42ECD2D8F80040BC4209D358F8272080
:102520008018694148F82700084600217F1CF1E720
:10253000002005B0BDE8F08FF0B5136806680024F0
:102540000025B34201D20320F0BD8E464FF0010CAE
:102550000646174600210FE056F82C2000235EF8AF
:102560002C00A2186B41141A63EB010547F82C40AC
:102570002C46ED170CF1010CDEF800006045EBD2A3
:10258000326862450AD356F82C0024184D4147F8AA
:102590002C402C46ED170CF1010CF1E70020F0BDAA
:1025A000F0B50446666815460027721847EBE173DC
:1025B0006A6002261A46DB1708E054F82600121853
:1025C0007B4145F826201A46DB17761C2068B0426E
:1025D000F3D21046524222EA0000C00FF0BD2DE9AE
:1025E000FE4F8AB00C462168054654F8210000F0E1
:1025F000EAFA00210690099122680C98694601F0D8
:1026000097FD10B10220099047E101210495029441
:102610000AE0049A1468201A081802EB8000426845
:10262000009840F82120491C029800688142F0D3AC
:102630000098002240F821200499029B0A6818683B
:10264000121A0698521C0592C0F120008DF8040061
:102650001AE058F82620002382185AF826004B4129
:10266000794208400021101A63EB010148F8260066
:102670000846C917761CDAF80020B242E9D205985C
:10268000CDF808A0401E05900598002800F0F780BE
:1026900004980599009C236850F821209DF80400B7
:1026A00054F82350211F51F8236085400698C640F6
:1026B00035430795029D2E6854F826000890039430
:1026C00005E051F82300039C44F823005B1E012B16
:1026D000F7D8039800271F244260029A9DF80450FF
:1026E0009DF804601068134653F820201B1F53F810
:1026F000200002FA05F5069AD04005430398039A94
:10270000006852F8203051F82000069903FA06F6C6
:10271000C84006430798294600F049FA00F044FAF9
:10272000079A002100F03BFA8046C4F1200908FA1C
:1027300009F126FA04F040EA010A5146284600F061
:102740003BFA00F031FA014628FA04F040EA010BA6
:10275000AAEB050020FA09F14246584600F01FFA9C
:10276000804605FA04F0311A3246584600F017FA4E
:1027700006460BFA04F00743641ED6D131462846BC
:1027800000F01AFA00F010FA074348EA07070021A0
:10279000384600F00CFA00F007FA7A1E002100F02B
:1027A000FEF9044607982946012700F000FA00F0D8
:1027B000FBF922464FF0FF3100F0F1F9039E0024AF
:1027C0000025B846DDF808A0039024E05AF8280058
:1027D000039A029056F82810E2FB0045A1EB040989
:1027E0002C464846002500F0E7F946F82890029963
:1027F00024186D41484600F0DFF9029983464846A7
:1028000000F0D5F900F0D0F95A46394600F0C7F982
:10281000074608F10108DAF800004045D6D2B04674
:1028200008992646304600F0C7F940EA05040898A2
:102830003146264600F0C0F920EA05052F43A7439C
:10284000002000214FF0010C002510E05AF82C2048
:1028500058F82C4073421A400023A2186B4180188C
:10286000594148F82C000846C9170CF1010CDAF858
:1028700000206245EAD2002000210126FBE60B9CE5
:102880000021204601F08BFC00992246012001F036
:1028900095FC0C98694601F056FC09980DB0BDE80E
:1028A000F08F2DE9F045154642688E460168DEF846
:1028B000003002F001067642994202D12C688C4227
:1028C00001D201203DE0DEF80470002300243740EF
:1028D000D219634104466A6000214FF0020818468D
:1028E00018E007465EF8280054F8282000233040FE
:1028F00010185CF8042C59413818594145F8280043
:1029000055F8283008460021DB0743EA5203D04639
:102910004CF8043C226805EB880C08F1010A42459A
:10292000DFD25CF8043CC00740EA53004CF8040CCA
:1029300003E045F82A100AF1010A28685045F8D248
:102940000020BDE8F0852DE9F047904602680B684D
:102950009A4203D1D8F80040944201D201204FE0BE
:1029600044684A68002364004FF00009A21A69EB2A
:10297000030315461A46DB17022784468E4618E0E5
:102980000CEB870454F8040C5CF827105EF8274021
:10299000C00F40EA4100161843EB090A08EB870014
:1029A000321B40F8045C6AEB090315461A46DB1734
:1029B0007F1CDCF80000B842E2D2644654F82010D4
:1029C000464646F8205002EBD173C84600254FF02A
:1029D000010C11E05EF82C0056F82C200021184064
:1029E000101849EB010118EB00004D4146F82C008E
:1029F000A846ED170CF1010C20686045EAD20020D2
:102A0000BDE8F0872DE9F84300240025002918BF10
:102A1000002A03D00B681668B34201D201201DE0E2
:102A2000012781460E46904613E058F82700002102
:102A300056F82720201869410023841A61EB03050A
:102A40002146484600F0ABF846F827002C46ED1723
:102A50007F1CD8F80000B842E7D20020BDE8F2831E
:102A6000F8B5174605462A680E461846520007F183
:102A7000080101F05DFB040009D17E603D606868DB
:102A800007F10C01FFF701FCF8684042F8602046AE
:102A9000F2BD0B4680B500925968024600F023F85B
:102AA00002BD2DE9FC411F460023054690460193D7
:102AB0002A680E4601A9404601F03AFB04000FD1F6
:102AC0000198012101F06BFB0097019933462A46DA
:102AD000284600F008F8044601A9404601F033FBFF
:102AE0002046BDE8F681FEB514461D462A682368D7
:102AF0001668B34201D20320FEBDEB68089F121D89
:102B000001930092AA68D7F800C0091D131D324630
:102B1000001DE047E868231D00902968A8687C68CC
:102B20000A1D3146001DA0470020FEBDF8B50C4629
:102B30001546296822681F460E68B24201D203205A
:102B4000F2BDEA680B1D001D0092A968D7F808C005
:102B50000A1D3146E047E868231D00902968A868EF
:102B6000FC680A1D3146001DA0470020F2BD0A4640
:102B700000210160C160816821B100F108011046A7
:102B800001F0E1BA704710B582B0049C009313467F
:102B90000A460194014601F05FFC02B010BD4042BC
:102BA000514008405040704780F001007047484055
:102BB00041420843C00F70470A1A41405040084044
:102BC0005040C00F7047014610B5202001221F233E
:102BD00021FA03F404F0010484F001042240801A75
:102BE0005B1E13F1010FF3D110BD0023002918BFA4
:102BF000002A04D00160002142608360C1607047F8
:102C0000014648688968401A704720B511B11AB961
:102C100000200860012020BD8368D21C456892080E
:102C200003EB8202954203D200200860022020BDFF
:102C300005682B440B6082601146C268914238BF20
:102C40001146C160002020BD10B5044600200029B7
:102C50001CBF0B68002B03D012B1A368934201D2B2
:102C6000012010BDD21C92080860A3EB8202A26072
:102C700010BD10B504466168206807F021FA0020F5
:102C800000210022002384E80F0010BD2DE9F84345
:102C90000D469146089FD9F80010804638680A68AA
:102CA000904238BF012022D30A9C0121384601F00E
:102CB00076FA224649463846FFF7EBFE2E6800E0DA
:102CC000761E002E03DD55F826000028F8D0760188
:102CD00008E0281D710950F8212006F01F00C240AD
:102CE000D10706D4761EF4D5002E02D50020BDE80B
:102CF000F28323464A4639463846FFF717FF281D18
:102D0000710950F8212006F01F00C240D10706D5F6
:102D100000944B463A4641463846FFF7E4FE761E9D
:102D2000E2E72DE9F64F8BB006468946B1690027E8
:102D30000A68906801F0D6FAB1698A681368B0FB36
:102D4000F3F81D465A1E05FB18058DF810209DF856
:102D500010000093012383405B1E09930A681368E7
:102D60001C6802230297059407938A6806924868B4
:102D7000C169022904BF032007900021484601F0E1
:102D80009BFA50B9B0690068C169012907D0816810
:102D9000484601F050FA002801D4012493E1B069BB
:102DA0004168F0698A6906F114019200FFF72DFF6E
:102DB0000400F3D1BA460DE00068016870690A6842
:102DC00000EB8A01F06901F0B3F9040040F06F8173
:102DD0000AF1010AB06941688A699245ECDBCDF8D5
:102DE00028A002A93046FDF716FA040040F05481ED
:102DF000029930464446FDF7F5FA99F80400B846C2
:102E000000F001000890B169086849468268089896
:102E1000C0F10100FFF7F6FDDDF800A00BE008F1BE
:102E2000010B04FB0B520121484601F074FA00FA31
:102E300008F00743D846AAF101008045EFD30C996A
:102E400030467F1CFDF7CEFA0C98069A06210190B9
:102E500007980091131D111D4743059A01207F1CFF
:102E6000574301EB87020599A71EFDF7FCFA52E0D4
:102E70007A1904FB0B2201214846521C01F04BFA3F
:102E800000FA0BF040EA08080BF1010BD345EFD331
:102E9000D6F818E09DF810000C9ADEF804C028FA65
:102EA00000F000F0010BDCF800C0012311463046B1
:102EB000E04702980621009101900698ABF10101CC
:102EC000DDF81CE0021D099881EA0801DDF814C054
:102ED0000840401C00FB0EF000236146401C00FB34
:102EE0000CF0CBF1010B7F1E02EB80020120FDF7FD
:102EF000BAFA029A31465846FDF74DFA0C9B00206B
:102F0000029A0090D6F818C019463046DCF804E062
:102F1000DEF804C0E047681E8041B7EBD07F03DBDA
:102F20004FF00008C346B1E79DBB002709E004FB52
:102F300007F201214846521C01F0EDF9B840054363
:102F40007F1C5745F3D3B4690C9A0123646811467A
:102F50009DF81000D4F800C025FA00F73046E0478D
:102F60000298062107F00107019006980091791E4A
:102F7000021D0998DDF81CA04D4005406D1C05FBA5
:102F80000AF5059C00236D1C6543214602EB850272
:102F90004BE00698059A6F1E011D01EB82040C9D03
:102FA000924629E001232A4629463046E0477A1C0A
:102FB0000121484601F0AFF98046029806210091B0
:102FC00001900023224651460120FDF74CFA029A57
:102FD000C8F1010831464046FDF7DDF90020029AAC
:102FE0000090D6F818C02B462946DCF804E030469D
:102FF0007F1EDEF804C0E047B069002F4168D1F8B9
:1030000000C0CFDC2A460C95012311463046E0472C
:1030100001220121484601F07EF907460298062167
:10302000009101900023224651460120FDF71BFA32
:10303000029AC7F1010731463846FDF7ACF90C9BFF
:1030400003A8029A0090B4691946304665686C6816
:10305000A047B469039B0C9A656803F0010311460D
:10306000D5F800A03046D047B069089C0168C4F18B
:10307000010420468A684946FFF7C4FC0C9A314691
:103080002046FDF788F90C993046FDF793FA04467F
:1030900002A93046FDF71BF9DDF828A007E07169A9
:1030A00001EB8A02111F01F04EF8AAF1010AF06942
:1030B000BAF1000FF3DCB1694A6806F114019269B4
:1030C0009200FFF7C1FD20460DB0BDE8F08F000073
:1030D0002DE9F04F0E4699B04FF0FF31174612918F
:1030E000119110910191012100220546179107923B
:1030F0000692A9691C464FF0020908680268136825
:103100000A93CA6813680992DFF83C26049304986E
:10311000401E400802EB80031A1F0C92DFF82C2699
:1031200002EB8000031F0B934868DDF88880C169BB
:1031300028460229414608BF4FF00309FDF752F91E
:1031400041462846FDF70CFAA86900680894C16951
:10315000012910D08168304601F06DF8002807D5AC
:10316000A86901680898896801F065F8002802D408
:1031700001200590E3E2A8694168E8698A6905F1E0
:1031800014019200FFF741FD05900028F2D10024C0
:103190000CE009680A686969126801EB840100F0B3
:1031A000C7FF0590002840F0BF82641CA969E86948
:1031B0004A6893699C42ECD3049B0122A346991E62
:1031C0008A409200159202A9FFF71FFD0590002882
:1031D00040F0A182049901200024891E00FA01FA1E
:1031E00010E0029800EB84012846FDF714F80590E2
:1031F000002840F08982029850F824102846641C68
:10320000FDF7F0F85445ECD3039518943C46207C28
:10321000002100F00400FFF7CAFC20B917900398C2
:103220002146FDF79DF903982146FDF7F1F9059038
:10323000002840F05E820398029F012385693A6866
:1032400021466D68EF68B847029900200090039806
:103250004B680968856922466D682F690225B84761
:10326000039F10E0D7F818C00298DCF804E050F88B
:103270002530026800EB8500DEF814C050F8041C0D
:1032800038466D1CE04701200E905545EAD308985A
:1032900001F028F80546304601F024F885422CBF9D
:1032A0000898304601F01EF80D960F94019DCDF858
:1032B0005890129C119EDDF840A0814675E0DDF823
:1032C00030C0039A06980191169E101AA0F1010EC3
:1032D0004FEADE0E401E8000099A00F01C00062115
:1032E00000915CF82EC0131D111D2CFA00F000F0A7
:1032F0000F0046430A9A0120761C724301EB8202BA
:103300000A99FDF7B0F80298394602680120FDF7E6
:1033100042F83AE00399081A0B99421ED20851F874
:103320002250401E800000F01C00C5409DF8026045
:1033300005F00F05761B76B2AEBB0298069A0168BF
:1033400001988242BBDADDF818C00C9E169A4FEA4B
:10335000DC0C01910621009156F82C60DDF818C0B4
:103360000A9909984FEA8C0E0EF01C0E26FA0EF6FA
:1033700006F00F067243031D001D521C514300EB63
:1033800081020A990120FDF76EF802990020009051
:10339000BE690A684346D6F804C041463846DCF8A0
:1033A0001060B047109EA9F10109B9F1000FD8BF14
:1033B000002C06DCBAF1000FDCBF002E002D40F31C
:1033C0003C81B9F1000F0AD4D7F818C00123424656
:1033D000DCF804E041463846DEF80CC0E047002C3B
:1033E00002DD641E64B206E0BAF1000FC4BFAAF1A8
:1033F00001004FFA80FA002E02DD761E76B203E05D
:10340000002DC4BF6D1E6DB204990E98491C8840F2
:10341000401E8DF8030004980E99421E04989140B6
:103420000191411E8DF802100E980499049A88406B
:1034300004990390A2EB0902A9EB010114910499EC
:103440008DF801200498A9EB0101C9F10102129144
:103450008DF80020401C002CA9F101014FF0FF3233
:103460001390C8BFBAF1000F1191109256DCB9F158
:10347000000F06DD119A0D98022100F04CFFC0B23A
:1034800007E00D9841689DF8000001FA00F000F097
:103490000300002C41D5BAF1000F3FDC00F0010120
:1034A00091EA600F00F082801498002805D4129AE7
:1034B00013990D9800F02FFF08E00D9841689DF8D2
:1034C000010001FA00F09DF803100840019A0199EB
:1034D000801AC0B2079088420BDA07990B98C90886
:1034E00050F821200798810001F01C0122FA01F018
:1034F0000CE00399081A0B99421ED20851F82210C9
:10350000401E800000F01C0021FA00F09DF80240EF
:1035100000F00F0AA4EB0A0464B2002C46D107980D
:103520000199884218DA07990C984346C90850F85F
:10353000210007998A00B96902F01C02D0404A684C
:1035400010F00F00546901D10F9A02E0029951F86E
:1035500020204146384627E003980799411A0C98E5
:103560004A1ED20850F82200491E890001F01C01B1
:10357000C840029910F00F000A680CBF0F9951F86B
:1035800020100120FCF7D4FE029839460268012081
:10359000FCF701FFBC6902984346D4F804C00268F6
:1035A00041463846DCF81440A047109C002EC8BFA6
:1035B000002D15DCB9F1000F06DD119A08980221E3
:1035C00000F0A9FEC0B207E0089841689DF800002D
:1035D00001FA00F000F00300002E7FF5ADAE002DE3
:1035E0003FF7E1AE00F0010191EA600F3FF4DBAE7E
:1035F0001498002805D4129A1399089800F08BFEAD
:1036000008E0089841689DF8010001FA00F09DF873
:1036100003100840019A0199801AC0B206908842AE
:10362000BFF678AE06990B98C90850F82150069855
:10363000810001F01C01CD4078E603970D9C0F9EA0
:10364000089FDDF828A0099DB9F1000F46D1039825
:1036500001234246D0F818E04146DEF80490D9F83C
:103660000CC0E0472079C10717D50298314602689F
:103670000120FCF75DFE0298039902680120FCF727
:103680008AFE0398029A4346D0F818C01268414651
:10369000DCF80440D4F814C0E0473879C1071DD5E0
:1036A000029806222B1D01680092281D019100EB53
:1036B0008A0251460120FCF7D6FE0298039902685F
:1036C0000120FCF768FE02990020009003980A6828
:1036D0004346876941467C682769B847179840B9CF
:1036E00003983146FCF766FF059003984146FCF7C6
:1036F00061FF039D189C07E0029800EB8401091FFD
:103700002846FCF7E4FD641E002CF5D1159AE86903
:1037100002A9FFF799FA5C4606E0696901EB8402A9
:10372000111F00F010FD641EE869002CF5D1A96995
:103730004A6805F1140192699200FFF785FA05982D
:1037400019B0BDE8F08F00BF503700085C370008A3
:10375000100100004024521561367307012000005B
:1037600003100120021001402DE9FC478146002092
:103770000F46924600903A681E4669464846002524
:1037800000F0D6FC5FEA000838D10098002101243F
:1037900000F005FD009A39460120AAF1010700F06A
:1037A0000DFD04FA07F71CE00021715513E00098A5
:1037B0004168C807F8D504FA0AF0421E11404AB21F
:1037C0007BB29A42A8BFC91B7155009A49B24942BF
:1037D0001046FEF7E5FE009A01216D1C1046FEF72B
:1037E00070FD0098002100F067FD0028DFD00A98E6
:1037F00000B105606946484600F0A5FC4046BDE8BA
:10380000F687000000B581B00168074A914200D1F7
:1038100010B9064801B000BD7C2106F051FC4FF400
:10382000003001B000BD00BFFC38000803000200FA
:103830000F4A2DE9F04790B0B2E8F8516946DFF839
:1038400034A0A1E8F851B2E8F851A1E8F851D0F855
:103850000090D14500D118B9074810B0BDE8F087F5
:1038600040226946083000F05AFF10B0BDE8F087EA
:1038700078A50008FC38000803000200412904D2A2
:103880000268044B9A4200D108B9034870470830D7
:1038900000F054BFFC3800080300020010B481B0EF
:1038A00013460268074CA24200D118B901B006487D
:1038B00010BC704700F1240201B0083010BC00F0C9
:1038C00041BF00BFFC3800080300020010B481B003
:1038D00013460268074CA24200D118B901B006484D
:1038E00010BC70470A4600F1240101B0083010BC3A
:1038F00000F07CBFFC380008030002000538000817
:10390000313800087D3800089D380008CD3800089F
:10391000F0B50446BDB00B480D4616461F46029052
:10392000094B1022802104A800F0F5FE4298009770
:10393000334601902A46214602A8FEF75DFC3DB0C1
:10394000F0BD00BFFC38000840A800082DE9F14F89
:10395000ADF5327D0A6812A80DF1C80C13BA4A6899
:103960004FF0100E12BACDE912238A6813BACA6852
:1039700012BAC0E902230A6913BA4A6912BAC0E945
:1039800004238A6913BACA6912BAC0E906230A6A0B
:1039900013BA4A6A12BAC0E908238A6A13BACA6A11
:1039A00012BAC0E90A230A6B13BA4A6B12BAC0E909
:1039B0000C238A6B13BACA6B12BAC0E90E230A6CC5
:1039C00013BA4A6C12BAC0E910238A6C13BACA6CD3
:1039D00012BAC0E912230A6D13BA4A6D12BAC0E9CD
:1039E00014238A6D13BACA6D12BAC0E916230A6E7F
:1039F00013BA4A6E12BAC0E918238A6E13BACA6E95
:103A000012BAC0E91A230A6F13BA4A6F12BAC0E990
:103A10001C238A6FC96F13BA91FA81F2C0E91E2381
:103A20005CE90401C70C43034FEAC10AC60047EA38
:103A3000413743EAD1434AEA507A46EA517680094F
:103A400040EA81607E4083EA0A0A86EA00078AEA41
:103A5000911B5CE90E015CE91E4838184BEB010133
:103A600022465FEA58034FEA3202250A45EA086512
:103A70004FEA046A43EAC4734AEA182A82EA05064E
:103A8000E20942EA486283EA0A0A8AEAD8137240E3
:103A90005CE9207B80185941C01941EB0B01CCE94E
:103AA00000015CE9026AF70C47EA4A374FEA4639F7
:103AB00049EADA495CE91C23F500CDE900794FEACF
:103AC000CA0949EA567945EA5A75DDE9007BB60923
:103AD00046EA8A667D408BEA0909754089EA9A19A7
:103AE0005CE90C6AAE19154649EB0A0A5FEA53090C
:103AF0004FEA3505CDE9006A2F46150A4FEA026AFA
:103B000049EAC27B45EA03654AEA132AD60946EA2E
:103B100043667D408BEA0A096E4089EAD31ADDE9E3
:103B20000059AE1949EB0A0A34194FEA40394AEBF9
:103B30000808C70C47EA413749EAD149CCE90248AD
:103B40005CE91A6ACDE900794FEAC109C50049EA82
:103B5000507945EA5175DDE9007B800940EA8160D2
:103B60007D408BEA0909454089EA91195CE90A011F
:103B70002818354649EB01015FEA5A094FEA350535
:103B8000CDE900012F46350A310649EAC67B45EAF0
:103B90000A6541EA1A21F00940EA4A607D408BEA51
:103BA0000109684089EADA11DDE90059281849EB72
:103BB000010182184B41CCE90423E50C5CE91801B2
:103BC00045EA4837630343EAD84B4FEAC803E200AB
:103BD00043EA547342EA5872A40944EA88647A407A
:103BE0008BEA0303544083EA98185CE90823A7187A
:103BF00048EB030B04465FEA510848EAC0734FEAFA
:103C000034044FEA0068050A48EA112845EA0165CC
:103C1000C00940EA416083EA0809654089EAD11198
:103C2000684038184BEB0101801941EB0A01CCE9DF
:103C300006010CF1200CBEF1010E7FF4F1AEB2983A
:103C4000B29EDDF8C8C2D0E92848D0E92A23DCE9D1
:103C50003259DDF8C8E2D0E92C01D6E92E6ADCE958
:103C6000307BCDE90859DEE93459DDF8C8E2DFF8E8
:103C700058C3CDE90659DEE93659CDE90401CDE94D
:103C80000A6ACDE910592825CDF838C00DF1480E43
:103C900038465946DDE9106AAC460E9D08350E954A
:103CA000083DD5E90059CDE90C59FEE8027BCDE984
:103CB000006A850BCDE9027B4FEA804A870C4FEA08
:103CC000803945EA81464AEA913A47EA813749EA2A
:103CD000914986EA0705C6058AEA09094FEAC15AE9
:103CE0004AEA502A46EA51266E4089EA0A0ADDE984
:103CF0000059AE1949EB0A0ADDE9085900EA05073F
:103D000001EA090BDDE9065985437D4029EA0109ED
:103D10008BEA090975194AEB0909DDE90C6ACDE955
:103D20000C48AD1949EB0A09DDE9026AAE1949EB05
:103D30000A0A270F4FEA041947EA081749EA1879CF
:103D4000A50745EA9805CDE900794FEA887949EA5F
:103D50009409DDE9007B7D408BEA0909CDE9005932
:103D60004FEA4869650649EAD41945EAD815DDE9FC
:103D7000007B7D408BEA0909CDE90059DDE9045952
:103D8000554004EA050783EA090908EA090BDDE959
:103D9000045915407D4003EA09098BEA0909DDE968
:103DA000007B0E9C7D194BEB0909DDE9067BCDE913
:103DB000107BDDE9087BCDE90801DDE90A01CDE9E9
:103DC000067BDDE9047B801941EB0A01CDE9042380
:103DD00072194AEB090308340E94DDE91059CDE954
:103DE0000A7B083CD4E90048FEE8026ACDE90259A2
:103DF000870B4FEA804947EA814749EA9139CDE983
:103E00000079870C47EA81354FEA803949EA9149C0
:103E1000DDE9007B7D408BEA0909CDE900594FEAD5
:103E2000C159C50549EA502945EA5125DDE9007B1C
:103E30007D408BEA0909DDE9027B7D194BEB09091D
:103E4000CDE90059DDE9085900EA050701EA090B47
:103E5000DDE90659854329EA01097D408BEA090914
:103E6000DDE9007B7D194BEB09092C1949EB0808AA
:103E7000A41948EB0A08150F45EA03164FEA021A7F
:103E80004FEA837995074AEA137A49EA920945EAA3
:103E9000930575408AEA09094FEA436A56064AEAD9
:103EA000D21A46EAD3166E4089EA0A0ACDE9006AB8
:103EB000DDE90C59DDE9046ADDE90C7B6E4089EA35
:103EC0000A0ADDE90459164003EA0A0A3D400BEAF2
:103ED00009096E408AEA090ADDE90059DDE9087B33
:103EE000CDE90801AD1949EB0A09DDE9066ACDE91A
:103EF000067BDDE90A01DDE9047B001941EB0801DD
:103F0000CDE90A7BDDE90C7B641948EB0908CDE9B2
:103F1000047BBCF1010C7FF4C0AEDDF8C8C2CDE972
:103F20000C23DDE90823DCE9287BDDE906593C198F
:103F30004BEB0808CCE92848B29CDDF8C8C2D4E9AC
:103F40002A7BDDE90C483C194BEB0808CCE92A48F0
:103F5000B29CDDF8C8C2D4E92C7BDDE904483C19E9
:103F60004BEB0808CCE92C48B29CDDF8C8C2D4E978
:103F70002E7BDDE90A483C194BEB0808CCE92E48BA
:103F8000B29CD4E9307B38184BEB0101C4E9300115
:103F9000B298D0E93248A21848EB0303C0E93223B3
:103FA000B299D1E93423521943EB0903C1E934230F
:103FB000B299D1E93623921943EB0A03C1E93623BA
:103FC0000DF5337DBDE8F08FC0A50008F8B50124DC
:103FD0000094002300240DE0009D065D0F5D641C2D
:103FE0007E40F643761CF60F86F0010635400095BC
:103FF000009DEB189442EFD31846F2BDF8B50023AC
:1040000001240094002A11E0009C851815F8016C29
:104010008F1817F8015C6E40F643761CF60F86F099
:10402000010634400094009CE318521EECD118465F
:10403000F2BD0000CD3F0008FD3F00080100000078
:104040002DE9F84F1D46DDF828900B9F0D9C4FF091
:10405000FF330093D9F800B00E46924680463246B0
:104060005146D847834664B3D9F8043032465146A6
:10407000404698476FEA0B02521C009942EA0B0235
:104080006FEAD2735B1C1940C2430091521C009925
:1040900002436FEAD2735B1C1940009186F05531E0
:1040A000484087EA000181F05531216080F05531A8
:1040B000C943491C009A08436FEAD070401C8243F0
:1040C0000092D9F80800012809D17540E943491C3C
:1040D00000980D436FEAD572521C90430AE0F11C20
:1040E00085EA91020098D243521C15436FEAD573BA
:1040F0005B1C984386F0AA3686EA0B0686F0AA3344
:10410000F243DB43C2F3C0725B1C009042EAD372FD
:104110000C980099D243521C91430091009977402A
:1041200087F0AA37884300990F403843BDE8F28FE3
:1041300038B51546AA000C46121DFEF766FD08B9F3
:1041400021680D6032BD10B50C4623681A689200D4
:10415000121DFEF779FD0023236010BD03460020E9
:10416000002B70B518BF002900D00AB9012070BD1E
:104170001C68A24228BF2246012406E001EB840508
:1041800055F8046C43F82460641CA242F6D2196806
:10419000A14224BF43F82400641CF8D270BD02463B
:1041A00000200AB9012070475160022102E042F864
:1041B0002100491C13688B42F9D270472DE9F8435E
:1041C00007461646306888460025401C7A42D8F8D3
:1041D000004004E058F82010401C11400D43844278
:1041E000F8D23068A04238BF04465FEA04090AE00A
:1041F00056F8292058F829103846FEF7D0FC46F822
:104200002900B9F10109F3D1641C791E05E056F8C3
:104210002400084046F82400641C3068A042F6D20E
:10422000002D14BF03200020BDE8F283404251401E
:104230000840504070472DE9F04784468E46DEF82E
:104240000050DCF8001000270126BA46A9420FD31F
:10425000084664460121854224D254F820200023D8
:10426000524263EB430303F001031F43401EF2E796
:1042700028460D4674464FF0FF31EEE75CF82020EB
:104280005EF8204000250023B4EB020865EB03092B
:104290006240521E06EA090563F1000345EA0A0A74
:1042A0001E40401E0028E9D106EB4A023846521E45
:1042B000BDE8F047FEF773BC10B50A46002301685D
:1042C00003E050F82140491E23430229F9D24068F7
:1042D0000021424042EA0300FEF769FCBDE81040BD
:1042E000FEF762BCF8B505462E68002234000BE0EC
:1042F0005742174355F82410FF43F80FFEF74FFCC1
:104300000246A6EBD776641EF2D11046FEF75BFCA0
:1043100000EB4610F2BDF8B5064630680C4657096A
:1043200002F01F05791CFEF747FCBB1C41420B4005
:1043300056F82310002204F01F04FEF730FC06EBB1
:1043400087014A68EA40C5F1200500FA05F5012019
:1043500000FA04F41543641E04EA0500F2BDF8B542
:1043600000230AB110B909B10120F2BD1468CD1CB7
:10437000B4EB950F01D20320F2BDB9B3002410E0D5
:10438000061996F802C0F77802EB85054FEA0C4C47
:104390004CEA076C77783678241D4CEA07273E43B1
:1043A0006E60A508CE1EB442EAD311F0030F11D0FF
:1043B0006D1C42F825300BE0075D52F825604FEA8E
:1043C000C30C07FA0CF73E4342F825605B1C641CE3
:1043D0008C42F1D3E41CA408641C00211068A042A4
:1043E00024BF42F82410641CF8D202E01046FFF704
:1043F000D6FE0020F2BDF0B5034618684C1E00251D
:10440000800001E0A554521E9042FBD312F003003D
:104410001FD0950803EB85067568461EF60025FA41
:1044200006F7A754521E401EF7D112E0940853F825
:1044300024508818001F2D0EC57053F82450121FE9
:104440002D0C857053F824502D0A457053F82440E4
:104450000470002AEAD1F0BD2DE9F04F0AB4DDF86E
:104460002C404FEA82024FF0000C5FEA020EBEF1D0
:10447000040E43F80EC07FF4FAAF5FEA020E50F864
:1044800004AB51F804BB1F684FF00006EAFB6B67F2
:104490000C9D06FB05FB20CC4FF00008B146EBFB62
:1044A0006589B2F104055E6851F8048BEAFB686720
:1044B000B04640CCEBFB668943F8048B2D1FF2D14C
:1044C00000990B9C17EB0C064FF0000747EB070712
:1044D00016EB09084FF0000949EB0909C3F8008001
:1044E00007EB090C019BBEF1040EC8D19A46A34606
:1044F000151E35B140CB80CCBE41A5F10405FFF7B8
:10450000F8BF66EB0606B4446FEA0C0C53465C46F3
:10451000151E4DB1D3F8006080CC07EA0C07BE41F0
:1045200040C3A5F10405F4E702B0BDE8F08F2DE922
:10453000F04FDDF8244009924FEA81014FF0000B63
:10454000ABFB0BA58C46BCF1040C50F80CE043F817
:104550000CE000D0F7E70844D3F80090ABFB0B78F1
:1045600009FB04F90E469E46DEF8007052F804CBB3
:10457000A6F10406E9FB6C7856B1DEF8047052F837
:1045800004CBA6F10406E9FB6C784EF8047BF3E754
:10459000099A80C84FF0010CEAFB6C78CEF80070E5
:1045A000C24605F104058D42D6DB9C4693460D1E9E
:1045B00035B15CF8046B80CABE41A5F10405F7E78C
:1045C00066EB06060AEB060C6FEA0C0C9A465A4696
:1045D0000D1E4DB180CA5AF8046B07EA0C07BE41A4
:1045E00040C3A5F10405F4E7BDE8F08F2DE9704F55
:1045F00092005FF000095FEA420BABF1040B04D0BC
:10460000BBF1040B43F80B90FAD15FEA020B17D011
:10461000002450F804CB9E4692460E46DEF8005029
:1046200056F8048BECFB68544EF8045BBAF1040AAC
:10463000F4D1CEF8004003F10403BBF1040BE7D141
:10464000BDE8708F4022A03005F038BD2DE9F84F4D
:10465000826800258346970802F0030200927A01DF
:1046600002F02008C8F120080E4629E0A9006808D9
:1046700001F0040101EBC001741869010BEBC00AE1
:1046800001F02009DAE92801C9F120094A4600F0C1
:10469000D7F9E070DAE928014A466D1C00F0D0F93C
:1046A000000AA070DAE928014A4600F0C9F9000CB6
:1046B0006070DAE928014A4600F0C2F9000E207065
:1046C000BD42D3D30024009D11E00BF1A0017A0874
:1046D00001EBC203D3E90001424600F0B1F9E10069
:1046E000C1F11801C84004EB8702B054641CAC420D
:1046F000EBD3BDE8F18F70B5C468036900220025D3
:10470000E31AD418044404F81C5F8E5C521C082A77
:104710002672F6D370BD0360C1600261704738B580
:10472000154604460022626023685A6890470020BC
:104730006061A061A5604FF4003032BD81604FF42C
:10474000003070472DE9F84304462079D4F80C80F6
:10475000450748BF244844D466691D46A8F10100B6
:1047600000EAD60306EBC5066661B6EBC50F02D2BA
:10477000A669761CA661A669174606EB5576A66162
:104780000E46E918884224D2A8EB03094A4631466E
:10479000F81805F093FC226839460EE04246384688
:1047A00005F08CFC2368394620461A68904707E0DC
:1047B000311811F00300F1D12268204613689847A0
:1047C000484600EB0809A9F10101A942F0D30023F2
:1047D00000E000202A1A3118F81805F06FFC4FF499
:1047E0000030BDE8F28300BF040002002DE9FC4F59
:1047F00085B00246D06813690027DFF86CC1A0EBD2
:10480000030A50680DF10C0EDFF8608140F00400DF
:10481000506003A80290D8E9003403A8544DC0E9C1
:1048200000342878534D00280CBF002304239946F8
:104830005CF803305EF80940012623441D601C68C3
:104840009E60DCF80430039DDCF80090DEF8046024
:104850005D406540484C654089EA0606474C664025
:104860007519474CD8E9006B6540002803ACC4E9D2
:10487000006B029E0EBF0024042004245CF800009C
:104880003459012620183F4C046004688660039860
:10489000029E434063407068374C634089EA0000E1
:1048A000364C6040034438484340280018BF01207C
:1048B0005B1E9B41042F2CBFC0B2D80F02F1140322
:1048C00053F8200007F00303C3F10303DB00D840D3
:1048D0000DF807007F1C082F9DD315466A69AB6948
:1048E000E868D20842EA4372401E002300EA020749
:1048F00002400C469B420AD8524508D28020E0551F
:104900007F1C574516D2AAEB0701E01910E0802062
:10491000E05500E0E355E8687F1C8742FAD32A6837
:10492000284613689847BAF1000F03D05146204635
:1049300005F0C6FB2A68069E059F936869462846CF
:1049400098472A6821462846D2F80090C8472B6825
:1049500039462846DA6890470EB1A86830604FF4AF
:10496000003007B0BDE8F08F38A500088C4900087A
:10497000840700205FC5109304850012FC68017A4B
:10498000C0F524FF24AF33D426AF698B04B00101F6
:1049900000170145034613F8012B002AFBD1181A12
:1049A0000138704770B4840746D04C1E002941D0AE
:1049B000D5B2034602E0611EE4B30C4603F8015B86
:1049C0009907F8D1032C2ED9D5B245EA05250F2C2D
:1049D00045EA054519D9264603F11001103E0F2E70
:1049E00041F8105C41F80C5C41F8085C41F8045C4B
:1049F00001F11001F2D8A4F1100121F00F0104F02F
:104A00000F041031032C0B440DD91E4621460439E6
:104A1000032946F8045BFAD8211F21F00301043171
:104A20000B4404F003042CB1D2B21C4403F8012B54
:104A3000A342FBD170BC70470C460346C2E700009E
:104A4000D0400B00D1409C46203AD34018435242FC
:104A5000634693401843704753B94AB9002908BFC9
:104A600000281CBF4FF0FF314FF0FF3000F0B0B90D
:104A7000ADF1080C6DE904CE00F006F8DDF804E0B5
:104A8000DDE9022304B070472DE9F04F099D884607
:104A900004468E46002B4AD18A4217465FD9B2FAA5
:104AA00082F64EB1C6F1200301FA06FEB740B440CB
:104AB00020FA03F343EA0E0E4FEA17481FFA87FC69
:104AC000230CBEFBF8F108FB11EE01FB0CF243EAEC
:104AD0000E439A4207D9FB1801F1FF3002D29A42E5
:104AE00000F2548101469B1AA2B2B3FBF8F008FB16
:104AF000103300FB0CFC42EA034294450BD9BA1870
:104B000000F1FF332CBF01240024944502D9002C6E
:104B100000F03F81184640EA0140A2EB0C02002160
:104B20001DB1F2400023C5E90023BDE8F08F8B42A0
:104B300005D90DB1C5E9000100210846F5E7B3FA32
:104B400083F100294ED14345C0F01281824240F2E8
:104B50000F810846002DE8D0C5E9004EE5E7002AA0
:104B600000F0AC80B2FA82F6002E40F0BB808B1AC7
:104B70004FEA124EBCB20121020C80B2B3FBFEFC24
:104B80000EFB1C3342EA034304FB0CF29A420ED99B
:104B9000FB180CF1FF382CBF4FF001094FF0000952
:104BA0009A4203D9B9F1000F00F0EC80C4469B1A79
:104BB000B3FBFEF80EFB183304FB08F440EA034293
:104BC00094420BD9BA1808F1FF332CBF0120002002
:104BD000944202D9002800F0D1809846121B48EA7E
:104BE0000C409DE7C1F120068B4008FA01F400FA61
:104BF00001F922FA06F728FA06F88A401F4320FA3C
:104C000006F3380C23431FFA87FC1C0CB8FBF0FE9C
:104C100000FB1E8844EA08440EFB0CF8A0450ED9A0
:104C20003C190EF1FF3A2CBF4FF0010B4FF0000B77
:104C3000A04503D9BBF1000F00F0B880D646A4EB25
:104C400008041FFA83F8B4FBF0F300FB134403FBE2
:104C50000CFC48EA0444A4450ED93C1903F1FF308A
:104C60002CBF4FF001084FF00008A44503D9B8F15C
:104C7000000F00F09F80034643EA0E40A4EB0C04B3
:104C8000A0FB02EC64457346E04602D307D1F14530
:104C900005D2BEEB02036CEB070C0138E0465DB1B8
:104CA000B9EB030264EB080404FA06F622FA01F3F6
:104CB000CC401E43C5E90064002136E7B1FBF2FC9D
:104CC000010C144680B2964641EA084120269046DF
:104CD00040EA01431046B1FBF2F1A3EB080341EABD
:104CE0000C414BE7B740C6F1200301FA06F221FA66
:104CF00003F84FEA174E20FA03F3BCB2B040134357
:104D0000020C190C80B2B8FBFEF90EFB198841EABF
:104D1000084109FB04F8884551D9791809F1FF3C8D
:104D20002CBF4FF0010A4FF0000A884502D9BAF1B2
:104D3000000F31D0A1EB0801B1FBFEF909FB04F82B
:104D40000EFB19119BB243EA0143434535D2FB18D0
:104D500009F1FF312CBF4FF0010A4FF0000A434523
:104D6000BBD2BAF1000FB8D1A9F102013B44B4E7BC
:104D7000841A68EB030201209646EBE63A44A8F158
:104D800002082BE7ACF1020C3B4410E702393B442C
:104D9000A9E63A440238BEE6A7EB0808A9F1020CDE
:104DA0004144B1FBFEF909FB04F8C9E7AEF1020E7C
:104DB0003C4444E7023B3C445EE749468DE7A1EBB7
:104DC0000801CC46B1FBFEF909FB04F8B8E700BFC7
:104DD000704700BFBFF34F8F0549CA6802F4E06215
:104DE000044B1343CB60BFF34F8F00BFFDE700BF01
:104DF00000ED00E00400FA050C4B5B6813F0010FB6
:104E000004D10A4A136843F002031360074B5B683E
:104E100013F0010F04D1054B0222DA60704700BF86
:104E2000024B5B6813F0020FF5D1F8E70004034072
:104E30000023032B06D850F82320B2F1FF3F03D103
:104E40000133F6E701207047002070470023032B51
:104E500004D850F823201AB90133F8E7012070472D
:104E6000002070477F2835D870B5164640031B4B8D
:104E700099420BD01A4B994206D01A4B994201D055
:104E8000002504E0184D02E0184D00E0184D4519CA
:104E900022D001233360174B00221A60BFF34F8FDB
:104EA0002C4605F50053A34207D92046FFF7C0FF63
:104EB00008B11034F5E7002333600E4B1B680BB9C3
:104EC000002070BD0B4B1A680B49002001F0F8FF61
:104ED0000B20F6E7082070470220F2E7DEC0DEC0B4
:104EE00000EEFFC007B0FE5A00C0070800E0070848
:104EF00000000108A80B002054A8000808B5364A95
:104F0000936A23F4E06323F0030343F4007343F054
:104F100002039362516B314B0B4043F0807343F0BB
:104F200023035363136843F0807313602A4B1B6899
:104F300013F0007F0CD0284A936A43F480239362D5
:104F4000274A136823F00F0343F00303136002E0C2
:104F500000BFEBE700BF224B1B6803F00F03032BDE
:104F6000F8D11D4B1A6A22F007021A62D3F8002208
:104F700022F01002C3F80022D3F8002222F0070228
:104F800042F00502C3F800221A6A22F070021A6287
:104F90001A6A22F4E0621A625A6A22F070025A62B5
:104FA000DA6942F00302DA6100E000BF0A4BDB6914
:104FB00003F00C030C2BF8D10A4B00221A601A6480
:104FC000094804F07FFB094BD3F8883003B908BDCA
:104FD000064804F03FF8FAE7000C024600FEFF80A6
:104FE000002002400060024000D8B805B00B00204D
:104FF00008B52B4B4FF480321A601A64294AD369E2
:1050000023F00303D36100E000BF264BDB6913F0FC
:105010000C0FF9D1234B9A6A22F480229A621A6803
:1050200022F080721A601F4B1B6813F0007F01D0C2
:1050300000BFF8E71C4A136823F00F03136000E079
:1050400000BF194B1B6813F00F0FF9D1154B1A6AEB
:1050500022F007021A62D3F8002222F01002C3F8ED
:105060000022D3F8002222F00702C3F800221A6AB5
:1050700022F070021A621A6A22F4E0621A625A6A14
:1050800022F070025A62094804F01CFB084BD3F866
:10509000883003B908BD064803F0DCFFFAE700BF1B
:1050A00000600240000C0246002002400024F40090
:1050B000B00B002010B586B0002960D00C46334BF1
:1050C0009A4228D01DD8324B9A4229D0314B9A426D
:1050D00015D1314B5B0B314A520B184403199342E3
:1050E00051D8022303932E4BB3F8A0304FF6FF7232
:1050F00093421AD0002B40D0DB08013B16E0062477
:105100003EE0284B9A4204D1274B5B0B274A520BB7
:10511000E3E7062434E0264B5B0B264A520BDCE720
:10512000254B5B0B254A520BD7E77F231840049091
:105130000594234B1A6B42F040421A6342F2FA0282
:105140001A6203F02BF802A903A803F0CDF8044675
:1051500003F03CF81CB9029BB3F1FF3F0AD0029B5D
:1051600001930094059B013B049A1649002001F02D
:10517000A7FE0924FFF740FE02E07F23D6E70224C2
:10518000204606B010BD0824FAE700BFDEC0DEC02E
:1051900007B0FE5A0DF005B100E00000FF1F01004E
:1051A0000007F90B00EEFFC000E00700FFBF0E0094
:1051B00000000100FFDF070000C00700FFBF0E0076
:1051C0000020024080A8000870B504460D46054E38
:1051D000304602F0BFFBAA082146304602F014FC1C
:1051E000C04370BDF00C00202DE9F04F99B00D4682
:1051F0009A4B984235D09A4B98423BD1994FDFF861
:10520000E492994C3C1B994EDFF8DC823246984977
:10521000022001F055FE974B00221A60BFF34F8F1A
:10522000D8F800201444BC4205D34C4503D804F1FF
:1052300048034B452CD98F4B1B681BB38D4B1A6809
:105240008D49002001F03CFE062432468B490020A7
:1052500001F036FE0DB100232B60204619B0BDE8E9
:10526000F08F874FDFF884927F4C3C1B854EDFF830
:105270008082CBE77C4FDFF87C92834EDFF8788228
:105280000024C3E78149002001F01AFE0124DCE775
:1052900022467F49022001F013FE764B00221A605D
:1052A000BFF34F8F226C7B4B9A4210D0714B1B681F
:1052B0003BB1704B1A687049002001F001FE0624D2
:1052C000C3E77549002001F0FBFD0224BDE77349E7
:1052D000022001F0F5FD7249022001F0F1FDDFF836
:1052E00094910023C9F80030BFF34F8F04F14401BB
:1052F000C91B3846FFF768FFD9F8003043B9636C23
:1053000083420DD06749002001F0DAFD03249CE7B9
:10531000D9F800205849002001F0D2FD062494E776
:105320006149022001F0CCFD6049022001F0C8FD76
:10533000DFF840B10023CBF80030BFF34F8FA4EB70
:10534000070906AB01934023009308AB4A46394650
:1053500057480068FCF736FFDBF800704FB9B0F52E
:10536000003F0ED002465349002001F0A9FD03245E
:105370006BE7DBF800204049002001F0A1FD062486
:1053800063E701F039FC824648B11F2F0CD81AF8A8
:105390000730013BDBB2FD2B06D90137F5E7464963
:1053A00001F08EFD042450E7444F4FF48063444ADB
:1053B000444909683846FAF7F3FE07AB04934023E3
:1053C00003930294069B019308AB0093202352465B
:1053D0003D4909683846FCF77FFD04463846FAF730
:1053E000F5FE01F0F1FB234B1B6863B9374B9C4280
:1053F00011D0374B9C422AD022463649002001F07A
:105400005FFD052421E71B4B1A681B49002001F0B2
:1054100057FD062419E7079A9A42EAD12E4902203D
:1054200001F04EFD25B109F5015707377F0B2F60BD
:1054300098F8083098F80920B8F80A1001910092FD
:1054400032462649022001F03BFDCA2405E72449E3
:10545000002001F035FD0524F7E600BFEA1DADABE5
:105460007E1AFFC000E0070800000108C0A800087D
:10547000E0A80008A80B002054A8000818AB0008FA
:1054800000C00708CCA80008D8A80008FCA800089D
:1054900030A90008298A449454A9000888A9000862
:1054A000B8A90008D8A90008ECA9000800AA0008BB
:1054B000BCA5000824AA00085CAA0008880B0020EC
:1054C0008807002060A5000814A5000826C706006C
:1054D000936E060098AA0008C8AA0008E4AA00086B
:1054E0007CAA000800A00E0888E1070800A00E08AA
:1054F00088C1070800C007088801010870B5054683
:1055000014460E4609B100230B600CB10023236042
:105510003B4B00221A60BFF34F8F3A48FFF788FCDD
:1055200058B13948FFF784FC38B101232B700020B3
:10553000334B1B68002B59D170BD0C2233493148C5
:1055400004F02CF980B93048FFF772FC60B10223F7
:105550002B7016B12B4BDB893360002C42D0294BCA
:105560009B8923600020E3E70C222949254804F0A9
:1055700015F978B92448FFF75BFC58B103232B7069
:1055800016B1204BDB89336074B31E4B9B892360BB
:105590000020CDE71B48FFF759FC044638B11A48F4
:1055A000FFF746FC18B104232B700020C0E75CB95C
:1055B0001448FFF74BFC88B11348FFF747FC68B16C
:1055C00006232B700020B3E7102212490E4804F086
:1055D000E5F80028ECD105232B70A9E700232B70F8
:1055E0000520A5E70020A3E70020A1E7044B1A68E7
:1055F0000949002001F064FC00232B700B209BE77D
:10560000A40B002000E0000810E0000898B5000896
:105610008CB500087CB5000854A8000870B5044695
:105620000D467F280AD900230B7008252B462246F9
:105630001B49002001F044FC284670BD194B002294
:105640001A60BFF34F8F431D174E06EB031630460B
:10565000FFF7EEFB30B101232B70124B1B68A3B98F
:105660000025E9E73046FFF7F1FB10B103232B706B
:10567000F3E710220D49304604F090F810B90223E8
:105680002B70EAE700232B70E7E7064B1A680849FE
:10569000002001F015FC00232B700B25C6E700BF8E
:1056A00048AB0008A40B002000E000086CB500081F
:1056B00054A80008914252D0F8B51F467F2850D810
:1056C0004FF0FF333B604003274B99420BD0274BF1
:1056D000994206D0264B994201D0002604E0254E7F
:1056E00002E0254E00E0254E06441F4B9A420BD0A7
:1056F0001E4B9A4206D01E4B9A4201D0002504E070
:105700001C4D02E01C4D00E01C4D054400241C4BC8
:105710001C60BFF34F8F00E01034B4F5005F08D277
:1057200010226119A01904F039F80028F4D03C6067
:10573000F2E7134B1B682BB93B68B3F1FF3F0CD06A
:105740000020F8BD0E4B1A680E49002001F0B8FB8E
:105750004FF0FF333B600B20F3E70D20F1E7022011
:1057600070470820EDE700BFDEC0DEC000EEFFC0DE
:1057700007B0FE5A00C0070800E007080000010853
:10578000A80B002054A80008914257D0F8B51E4637
:105790007F2855D840032C4B99420BD02B4B994274
:1057A00006D02B4B994201D0002704E0294F02E09C
:1057B000294F00E0294F0744234B9A420BD0234B3B
:1057C0009A4206D0224B9A4201D0002404E0214C98
:1057D00002E0214C00E0214C0444214B00221A60DD
:1057E000BFF34F8F069B63B94FF4005221463846F2
:1057F00003F0D4FF05461A4B1B68BBB915BB00204C
:105800001FE032462146384603F0C8FF0546069B96
:105810009A19B2F5005FEED0B819A119C2F500527D
:105820001944184403F0BAFF0543E4E70C4B1A6827
:105830000C49002001F044FB0B2002E002207047DD
:105840000820F8BD0C20FCE7DEC0DEC000EEFFC083
:1058500007B0FE5A00C0070800E007080000010872
:10586000A80B002054A800082DE9F04186B0074697
:105870008846364E002500952B46354A3146FFF7BF
:1058800083FF044600952B46324A31463846FFF7DF
:105890007BFF0CB90C2807D00C2C0AD07CB970B94E
:1058A000032388F8003013E0022388F800302046F4
:1058B0000EE00028F2D1032388F8003008E002AAA5
:1058C00022493846FFF7CEFA28B1002388F8003085
:1058D00006B0BDE8F08103AA1D493846FFF7C2FAB9
:1058E00018B1002388F80030F2E7029B2BB1039A2D
:1058F0001AB9022388F80030EAE72BB9039B1BB1E1
:10590000012388F80030E3E704AB114A0F49384619
:10591000FFF7D0FE18B1002388F80030D8E705ABB8
:105920000C4A0A493846FFF7C5FE18B1002388F82B
:105930000030CDE7059A049B9A4203D3022388F8EE
:105940000030C5E7012388F80030C1E7DEC0DEC0C3
:1059500007B0FE5A00EEFFC02DE9F04182B00546C7
:10596000884614461146FFF759FE064600287AD0AD
:105970000B2804D0052802D0CEB9374674E0FDB11B
:105980007F2D38D00DF10601681EFFF747FE0DF19F
:105990000701681CFFF742FE9DF806709DF807306E
:1059A0009F4245D0032F4AD0032F4CD003263346C5
:1059B0002A463449002001F083FA0023237054E082
:1059C0000DF10701681CFFF729FE9DF80770012FF4
:1059D00002D90327002647E0012F01D00326E6E77E
:1059E000294B984501D100263EE021462846FFF785
:1059F0003BFF0646C0E70DF10701681EFFF70EFEEC
:105A00009DF8073023B1032B02D0012700262BE09D
:105A1000032B01D00326CAE71B4B984502D101276F
:105A2000002621E021462846FFF71EFF0646A3E791
:105A3000002BB7D0022BB5D01F46002614E0012B57
:105A4000B2D9002610E0012B01D03E46AFE70E4A46
:105A5000904502D11F46002606E021462846FFF762
:105A600003FF064688E707461FB9304602B0BDE887
:105A7000F0813B462A460549012001F021FA2770B2
:105A8000F3E700BF9CAB0008ADDEE1FE7CAB000895
:105A900070B582B005460E46002422467F2C15D8EC
:105AA0000DF1070229462046FFF756FF024628B9A6
:105AB0009DF80730032B02D10134EFE78024094B16
:105AC0001B682BB93460104602B070BD8024F6E725
:105AD000044B1A680449002001F0F2F94FF0FF343A
